:0D0ABC0041444A20204E5443202052470060
:10089400120A997BFF7A0A79BC7D017F01120A252D
:1008A4007F9C1208EE8E228F23750C03AB23AA22A1
:1008B4007D017F02120A667FDC1208EE8E228F23EE
:1008C400750C037BDC7A007D057F02120A667FAC1F
:1008D4001208EE8E228F23750C03AB23AA227D0906
:0A08E4007F02120A66120AD580B6E0
:0208EE00AD0754
:1008F000E4F508F509C2B6C2B5FB74807E00A80312
:10090000088006CEA2E713CE13D8F8FFEDF582EFEC
:10091000558224FF92B4D2B6C2B60BBB08DCE4FB0E
:10092000D2B6C2B630B714E47E80A803088005CEE4
:10093000C313CE13D8F94209EE42080BBB10E1D223
:06094000B5E508FF7E0092
:01094600228E
:0A0AD50000007F0B7EBEDEFEDFFC9A
:010ADF0022F4
:060AAD00C2A58F80D2A754
:080AB3007F027EEFDEFEDFFC96
:010ABB002218
:0A0AE000C2A6120AADC2A7020AB3B3
:100A4800CFCDCFCECCCE12083F7C007D0A12083F16
:040A5800ED2430FF5A
:0A0A5C00D2A6120AADC2A7020AB327
:100A8300AE07BE0104ED148006BE0209ED243F4407
:060A930080FF120AE022C0
:100A99007F38120AE07F0C120AE07F06120AE07F13
:040AA90001020AE05C
:0A0AEA00AC03120A83AF04020A5C99
:060A25008B088A09890A12
:100A2B00120A83E4FDAB08AA09A90A8D827583001B
:0C0A3B00120800FF6006120A5C0D80E942
:010A4700228C
:0C09F2007F0AEA24FFFDE434FFFC7E00D5
:0809FE008E0D8F0E8C0F8D1081
:100A06007F017E00E4FBEBC39510E50F6480F8746C
:0E0A16008098500AAC0DAD0E12082D0B80E832
:010A240022AF
:040A66008A0A8B0B62
:100A6A00120A83AA0CEAD39400400D1209F2AC0AC6
:080A7A00AD0B120A481A80EDD1
:010A82002251
:10094700120A83C3EA64809480400B7F2B120A5CEF
:100957008A168B17800E7F2D120A5CC3E49BF5174E
:10096700E49AF516AA15EAD39400400D1209F2ACE1
:0909770016AD17120A481A80EDB2
:010980002254
:040981008A1A8B1B28
:10098500120A83AA1CEAD3940040297F101209F4A5
:10099500AC1AAD1BCFCDCFCECCCE12083FEF540F46
:1009A500FEC3940AEE5004243080022437FF120A55
:0409B5005C1A80D177
:0109B900221B
:0409BA008A1F8B20E5
:1009BE00120A83AA21EAD394004028EA24FFFDE418
:1009CE0034FFFC7F027E001209FEAC1FAD20CFCD9E
:1009DE00CFCECCCE12083FEF54012430FF120A5C6A
:0309EE001A80D29A
:0109F10022E3
:03000000020AC928
:0C0AC900787FE4F6D8FD758123020894C4
:10080000BB010CE58229F582E5833AF583E02250AD
:1008100006E92582F8E622BBFE06E92582F8E222F7
:0D082000E58229F582E5833AF583E4932211
:10082D00EF8DF0A4A8F0CF8CF0A428CE8DF0A42EDF
:02083D00FE2299
:10083F00BC000BBE0029EF8DF084FFADF022E4CC9D
:10084F00F875F008EF2FFFEE33FEEC33FCEE9DEC66
:10085F00984005FCEE9DFE0FD5F0E9E4CEFD22EDAC
:10086F00F8F5F0EE8420D21CFEADF075F008EF2FF6
:10087F00FFED33FD4007985006D5F0F222C398FDE7
:05088F000FD5F0EA2284
:00000001FF
