:030000000208CA29
:0C08CA00787FE4F6D8FD75810702080075
:02086600AD07DC
:10086800E4FB74807E00A803088006CEA2E713CEBE
:1008780013D8F8FFEDF582EF558224FF92B4D2B673
:0A088800C2B60BBB08DCD2B5C2B546
:010892002243
:10089300AA07AF05120866AF027480A80708800292
:1008A300C313D8FCF4F5807F017E001208B5758070
:0208B300FF2222
:10080000C2B6C2B57DE87C00E4FF1208937F0A7E81
:10081000001208B57DA87C007F011208937F0A7E34
:10082000001208B57DB87C007F021208937F0A7E13
:10083000001208B57DF87C007F051208937F0A7EC0
:10084000001208B57D287C007F061208937F0A7E7F
:10085000001208B57D387C007F071208937F0A7E5E
:06086000001208B5809EA5
:1008B500EF1FAC0670011E4C600A7D027CEFDCFE6A
:0408C500DDFC80ECEA
:0108C900220C
:00000001FF
