:1008940075A0FE1208CD1208548F0BE50B60F7B457
:1008A40001F4050AE50AC3940240EBE4F50A80E684
:03000B00020800E8
:0B080000C0E0C0D075D000C000C007F1
:10080B00758A66758CFC0509E50970020508C394A9
:10081B00F4E50894014029750800750900E50A7094
:10082B000DAFA07801EF08800123D8FDF5A0E50AF4
:10083B00B4010DAFA07801EF08800103D8FDF5A03E
:09084B00D007D000D0D0D0E0327B
:1008CD005389F0438901C28DD28C758A20758CD1E4
:0508DD00D2A9D2AF22F8
:0408B4007F147E002F
:1008B800EF1FAA0670011E4A60047D0280F27FEFD6
:0408C800DFFEDDFC76
:0108CC002209
:10085400E4FC20B10E7F14FE1208B830B1FD12087A
:10086400B47C0120B00B1208B430B0FD1208B47C83
:100874000220B20B1208B430B2FD1208B47C03207B
:0F088400B30B1208B430B3FD1208B47C04AF04F8
:010893002242
:030000000208E211
:0C08E200787FE4F6D8FD75810B020894C5
:00000001FF
