:03000000020800F3
:0C080000787FE4F6D8FD758120020847DF
:10095D001209DC751E051208FC8F1DE51D64017062
:10096D0023051F531F03E51F7002F51EE51FB4017C
:10097D0003751E1EE51FB40203751E3CE51FB4036F
:10098D0003751E5AE51FFD7C007F0112088C80C681
:03000B0002099D4A
:10099D00C0E0C0D0758ACD758CD4051CE51CC39400
:1009AD00644003751C00E51CD3951E5004D2908045
:0809BD0002C290D0D0D0E0325C
:1008FC00E4F52020B1137F14FE1209F330B1FD7F13
:10090C00147E001209F375200120B0147F147E00B0
:10091C001209F330B0FD7F147E001209F37520022A
:10092C0020B2147F147E001209F330B2FD7F147EC6
:10093C00001209F375200320B3147F147E001209F2
:10094C00F330B3FD7F147E001209F3752004AF2041
:01095C002278
:1009C5001408003F0006005B004F0066006D007DC7
:0609D5000007007F00672F
:10088C00EF14B4080050549008A175F003A4C5836C
:10089C0025F0C583730208B90208BD0208C102081D
:1008AC00C50208C90208D10208D90208E1D2A48005
:1008BC000ED2A48012D2A48016D2A4801AC2A4D2C2
:1008CC00A3D2A28016C2A4D2A3C2A2800EC2A4C27A
:1008DC00A3D2A28006C2A4C2A3C2A2ED25E0240822
:1008EC00F808E6F5807F027E001209F3E4F5802219
:1009F300EF1FAC0670011E4C600A7D027CEFDCFE2B
:040A0300DDFC80ECAA
:010A070022CC
:1009DC005389F0438901758ACD758CD4C28DD28C24
:0709EC00D2A9D2AFC2B9226B
:10080C0002095DE493A3F8E493A34003F68001F29C
:10081C0008DFF48029E493A3F85407240CC8C333ED
:10082C00C4540F4420C8834004F456800146F6DFBC
:10083C00E4800B01020408102040809009C5E47E7E
:10084C00019360BCA3FF543F30E509541FFEE493B1
:10085C00A360010ECF54C025E060A840B8E493A378
:10086C00FAE493A3F8E493A3C8C582C8CAC583CAA3
:10087C00F0A3C8C582C8CAC583CADFE9DEE780BE5B
:0109DB00001B
:00000001FF
