:100C640070617373776F72643A004B4F424500466C
:090C7400414C4C0020202020001E
:10098900120CA87BFF7A0C79647D017F01120C0699
:100999001208008F15E51560F7D3940A5040E51247
:1009A9009401E51194005028AE16AF177C007D0A1A
:1009B900120AC18E168F17E51575F00A84E5F02520
:1009C90017F517E43516F5160512E512700205112B
:1009D900750C02AB17AA167D017F02120C47E512AE
:1009E90064024511706BE517641845167BFF702B7F
:1009F9007A0C796E7D0D7F01120C06E4F516F51758
:100A0900F511F5127FE87E03120C93750C02AB17F2
:100A1900AA167D017F02120C4780367A0C79737D04
:100A29000D7F01120C06E4F516F517F511F5127F85
:100A3900E87E03120C93750C02AB17AA167D017F91
:100A490002120C477BFF7A0C79787D0D7F01120C1D
:100A590006E515640C6003020999E517451670034C
:100A6900020999AE16AF177C007D0A120AD38E16B9
:100A79008F17E512151270021511750C04AB17AA20
:0B0A8900167D017F02120C4702099944
:060CBC00C2A58F80D2A743
:080CC2007F027EEFDEFEDFFC85
:010CCA002207
:0A0CD700C2A6120CBCC2A7020CC298
:100C2900CFCDCFCECCCE120AD37C007D0A120AD307
:040C3900ED2430FF77
:0A0C3D00D2A6120CBCC2A7020CC222
:100C7D00AE07BE0104ED148006BE0209ED243F440B
:060C8D0080FF120CD722CB
:100CA8007F38120CD77F0C120CD77F06120CD77F17
:040CB80001020CD752
:0A0CE100AC03120C7DAF04020C3DC1
:060C06008B088A09890A2F
:100C0C00120C7DE4FDAB08AA09A90A8D827583003C
:0C0C1C00120A94FF6006120C3D0D80E9E6
:010C280022A9
:0C0BD3007F0AEA24FFFDE434FFFC7E00F2
:080BDF008E0D8F0E8C0F8D109E
:100BE7007F017E00E4FBEBC39510E50F6480F8748A
:0E0BF7008098500AAC0DAD0E120AC10B80E8BA
:010C050022CC
:040C47008A0A8B0B7F
:100C4B00120C7DAA0CEAD39400400D120BD3AC0A04
:080C5B00AD0B120C291A80ED0B
:010C6300226E
:100B2800120C7DC3EA64809480400B7F2B120C3D2D
:100B38008A1D8B1E800E7F2D120C3DC3E49BF51E73
:100B4800E49AF51DAA1CEAD39400400D120BD3AC0D
:090B58001DAD1E120C291A80EDDE
:010B61002271
:040B62008A218B2237
:100B6600120C7DAA23EAD3940040297F10120BD5DC
:100B7600AC21AD22CFCDCFCECCCE120AD3EF540FBF
:100B8600FEC3940AEE5004243080022437FF120C70
:040B96003D1A80D1B3
:010B9A002238
:040B9B008A268B27F4
:100B9F00120C7DAA28EAD394004028EA24FFFDE432
:100BAF0034FFFC7F027E00120BDFAC26AD27CFCDCA
:100BBF00CFCECCCE120AD3EF54012430FF120C3D0E
:030BCF001A80D2B7
:010BD2002200
:100C9300EF1FAC0670011E4C600A7D027CEFDCFE88
:040CA300DDFC80EC08
:010CA700222A
:10080000E4F5087590FFC2932097137F14FE120C35
:10081000933097FD7F147E00120C9375080120968B
:10082000147F147E00120C933096FD7F147E00120C
:100830000C937508052095147F147E00120C9330DC
:1008400095FD7F147E00120C937508092094147F87
:10085000147E00120C933094FD7F147E00120C93D2
:1008600075080D7590FFC2922097147F147E0012B8
:100870000C933097FD7F147E00120C9375080220B4
:1008800096147F147E00120C933096FD7F147E0028
:10089000120C937508062095147F147E00120C9399
:1008A0003095FD7F147E00120C9375080A20941475
:1008B0007F147E00120C933094FD7F147E00120C86
:1008C0009375080E7590FFC2912097147F147E00D7
:1008D000120C933097FD7F147E00120C9375080361
:1008E0002096147F147E00120C933096FD7F147EA8
:1008F00000120C937508072095147F147E00120CCB
:10090000933095FD7F147E00120C9375080B209494
:10091000147F147E00120C933094FD7F147E00121D
:100920000C9375080F7590FFC2902097147F147E6A
:1009300000120C933097FD7F147E00120C93750803
:10094000042096147F147E00120C933096FD7F14C1
:100950007E00120C937508082095147F147E0012F7
:100960000C933095FD7F147E00120C9375080C20BB
:1009700094147F147E00120C933094FD7F147E003B
:08098000120C93750810AF087A
:01098800224C
:03000000020CCB24
:0C0CCB00787FE4F6D8FD758128020989C5
:100A9400BB010CE58229F582E5833AF583E0225017
:100AA40006E92582F8E622BBFE06E92582F8E22261
:0D0AB400E58229F582E5833AF583E493227B
:100AC100EF8DF0A4A8F0CF8CF0A428CE8DF0A42E49
:020AD100FE2203
:100AD300BC000BBE0029EF8DF084FFADF022E4CC07
:100AE300F875F008EF2FFFEE33FEEC33FCEE9DECD0
:100AF300984005FCEE9DFE0FD5F0E9E4CEFD22ED16
:100B0300F8F5F0EE8420D21CFEADF075F008EF2F5F
:100B1300FFED33FD4007985006D5F0F222C398FD50
:050B23000FD5F0EA22ED
:00000001FF
