:10088C007D077C007F011209137FE87E0312099615
:10089C0030A0127D077C007F011209137F027E00BD
:1008AC0012099680EE7D037C007F021209137FE80B
:1008BC007E031209967D057C007F031209137FE8E5
:1008CC007E031209967D057C007F041209137FE8D4
:1008DC007E031209967D067C007F051209137FE8C2
:1008EC007E03120996E4FDFC7F061209137FE87E55
:1008FC00031209967D087C007F071209137FE87E9E
:07090C000312099602088C9A
:10099600EF1FAC0670011E4C600A7D027CEFDCFE88
:0409A600DDFC80EC08
:0109AA00222A
:10097F001408003F0006005B004F0066006D007D0D
:06098F000007007F006775
:10091300EF14B40800505490092875F003A4C5835C
:1009230025F0C583730209400209440209480209FC
:100933004C020950020958020960020968D2A480D6
:100943000ED2A48012D2A48016D2A4801AC2A4D23A
:10095300A3D2A28016C2A4D2A3C2A2800EC2A4C2F2
:10096300A3D2A28006C2A4C2A3C2A2ED25E024089A
:0C097300F808E6F5807F027E000209967D
:03000000020800F3
:0C080000787FE4F6D8FD75811B020847E4
:10080C0002088CE493A3F8E493A34003F68001F26E
:10081C0008DFF48029E493A3F85407240CC8C333ED
:10082C00C4540F4420C8834004F456800146F6DFBC
:10083C00E4800B010204081020408090097FE47EC4
:10084C00019360BCA3FF543F30E509541FFEE493B1
:10085C00A360010ECF54C025E060A840B8E493A378
:10086C00FAE493A3F8E493A3C8C582C8CAC583CAA3
:10087C00F0A3C8C582C8CAC583CADFE9DEE780BE5B
:010995000061
:00000001FF
