:0300000002097B77
:0C097B00787FE4F6D8FD7581260209C2E1
:100C1E005772697465204F4B002020202020202021
:0B0C2E00200052656164204F4B200045
:070CC70001260002230000DA
:10080000120C68750D05AB24AA237D017F01120C23
:1008100001120A078F08E508B401150524E52470C4
:10082000020523750D05FBAA237D017F01120C0132
:10083000E508B40216E524152470021523750D058C
:10084000AB24AA237D017F01120C01E5086403702B
:1008500040AD24AC23FF120B7E120CBEAD24AC23A2
:100860007F01120B7E120CBE7BFF7A0C791E7D017C
:100870007F02120BA2E4F526120CBE0526E526C364
:10088000946440F47BFF7A0C79277D017F02120B80
:10089000A2E50864046003020811FF120B2575230A
:1008A000008F247F01120B25EFFEEE4223750D050C
:1008B000AB24AA237D017F01120C017BFF7A0C7906
:1008C000307D017F02120BA2E4F526120CBE052634
:1008D000E526C3946440F47BFF7A0C79277D017F81
:0708E00002120BA202081135
:060C7C00C2A58F80D2A783
:080C82007F027EEFDEFEDFFCC5
:010C8A002247
:0A0C9700C2A6120C7CC2A7020C8258
:100BC500CFCDCFCECCCE1209267C007D0A120926C8
:040BD500ED2430FFDC
:0A0BD900D2A6120C7CC2A7020C8207
:100C5200AE07BE0104ED148006BE0209ED243F4436
:060C620080FF120C972236
:100C68007F38120C977F0C120C977F06120C977F17
:040C780001020C97D2
:0A0CA100AC03120C52AF04020BD991
:060BA2008B098A0A890B91
:100BA800120C52E4FDAB09AA0AA90B8D82758300C9
:0C0BB8001208E7FF6006120BD90D80E95F
:010BC400220E
:0C0AF2007F0AEA24FFFDE434FFFC7E00D4
:080AFE008E0E8F0F8C108D117C
:100B06007F017E00E4FBEBC39511E5106480F87469
:0E0B16008098500AAC0EAD0F1209140B80E847
:010B240022AE
:040C01008A0B8B0CC3
:100C0500120C52AA0DEAD39400400D120AF2AC0B55
:080C1500AD0C120BC51A80EDB5
:010C1D0022B4
:100A4700120C52C3EA64809480400B7F2B120BD99F
:100A57008A178B18800E7F2D120BD9C3E49BF518CC
:100A6700E49AF517AA16EAD39400400D120AF2ACDD
:090A770017AD18120BC51A80ED31
:010A80002253
:040A81008A1B8B1C25
:100A8500120C52AA1DEAD3940040297F10120AF4D1
:100A9500AC1BAD1CCFCDCFCECCCE120926EF540F5B
:100AA500FEC3940AEE5004243080022437FF120B53
:040AB500D91A80D1F9
:010AB900221A
:040ABA008A208B21E2
:100ABE00120C52AA22EAD394004028EA24FFFDE445
:100ACE0034FFFC7F027E00120AFEAC20AD21CFCD9A
:100ADE00CFCECCCE120926EF54012430FF120BD903
:030AEE001A80D299
:010AF10022E2
:040C39007F147E00A6
:100C3D00EF1FAC0670011E4C600A7D027CEFDCFEDE
:040C4D00DDFC80EC5E
:010C51002280
:100A0700E4FB20B10E7F14FE120C3D30B1FD120C39
:100A1700397B0120B00B120C3930B0FD120C397B39
:100A27000220B20B120C3930B2FD120C397B0320B5
:0F0A3700B30B120C3930B3FD120C397B04AF0333
:010A4600228D
:090CB500D2A0D2A1C2A0C2A1226A
:070CCF00C2A0D2A1D2A022B5
:020B5500AD07EA
:100B5700E4FB74807E00A803088006CEA2E713CECC
:100B670013D8F8FFEDF582EF558224FF92A0D2A1AA
:060B7700C2A10BBB08DC6B
:010B7D002255
:100BE300E4FFD2A0FED2A130A00D7480A806088035
:0D0BF30002C313D8FC4207C2A10EBE08E8E1
:010C000022D1
:0A0CAB00EF24FF92A0D2A1C2A12203
:0B0C8B00E4D2A0D2A1A2A033FFC2A1BE
:010C9600223B
:100B7E008F098C0A8D0B120CB57FA0120B55120C1F
:100B8E008BAF09120B55120C8BAF0B120B55120CAF
:040B9E008B020CCFEB
:020B25008F0936
:100B2700120CB57FA0120B55120C8BAF09120B5587
:100B3700120C8B120CB57FA1120B55120C8B120BDA
:0D0B4700E38F0A7F01120CAB120CCFAF0A36
:010B5400227E
:080CBE007F097EF4DEFEDFFC7D
:010CC600220B
:10098700020800E493A3F8E493A34003F68001F27E
:1009970008DFF48029E493A3F85407240CC8C33371
:1009A700C4540F4420C8834004F456800146F6DF40
:1009B700E4800B0102040810204080900CC7E47EFD
:1009C700019360BCA3FF543F30E509541FFEE49335
:1009D700A360010ECF54C025E060A840B8E493A3FC
:1009E700FAE493A3F8E493A3C8C582C8CAC583CA27
:1009F700F0A3C8C582C8CAC583CADFE9DEE780BEDF
:010CCE000025
:1008E700BB010CE58229F582E5833AF583E02250C6
:1008F70006E92582F8E622BBFE06E92582F8E22210
:0D090700E58229F582E5833AF583E4932229
:10091400EF8DF0A4A8F0CF8CF0A428CE8DF0A42EF7
:02092400FE22B1
:10092600BC000BBE0029EF8DF084FFADF022E4CCB5
:10093600F875F008EF2FFFEE33FEEC33FCEE9DEC7E
:10094600984005FCEE9DFE0FD5F0E9E4CEFD22EDC4
:10095600F8F5F0EE8420D21CFEADF075F008EF2F0E
:10096600FFED33FD4007985006D5F0F222C398FDFF
:050976000FD5F0EA229C
:00000001FF
