:1008F8007D017C007F0112088C7F027E0012096155
:100908007D077C007F0212088C7F027E001209613D
:100918007D037C007F0312088C7F027E0012096130
:100928007D047C007F0412088C7F027E001209611E
:100938007D057C007F0512088C7F027E001209610C
:0209480080AE7F
:10096100EF1FAC0670011E4C600A7D027CEFDCFEBD
:04097100DDFC80EC3D
:01097500225F
:10094A001408003F0006005B004F0066006D007D42
:06095A000007007F0067AA
:10088C00EF14B4080050549008A175F003A4C5836C
:10089C0025F0C583730208B90208BD0208C102081D
:1008AC00C50208C90208D10208D90208E1D2A48005
:1008BC000ED2A48012D2A48016D2A4801AC2A4D2C2
:1008CC00A3D2A28016C2A4D2A3C2A2800EC2A4C27A
:1008DC00A3D2A28006C2A4C2A3C2A2ED25E0240822
:0C08EC00F808E6F5807F027E000209613A
:03000000020800F3
:0C080000787FE4F6D8FD75811B020847E4
:10080C000208F8E493A3F8E493A34003F68001F202
:10081C0008DFF48029E493A3F85407240CC8C333ED
:10082C00C4540F4420C8834004F456800146F6DFBC
:10083C00E4800B010204081020408090094AE47EF9
:10084C00019360BCA3FF543F30E509541FFEE493B1
:10085C00A360010ECF54C025E060A840B8E493A378
:10086C00FAE493A3F8E493A3C8C582C8CAC583CAA3
:10087C00F0A3C8C582C8CAC583CADFE9DEE780BE5B
:010960000096
:00000001FF
