:1009AC00110A3F065B4F666D7D077F6F777C395E62
:0309BC007971004E
:10080000758951E4F58CF58AF58DD28CD28ED2A9FA
:10081000D2AFF508750901F524F525E523B464FB8D
:10082000E4F52375A0FFE5095407FF241BF8E6242F
:100830000AF8E6F5807401A807088002C333D8FCE3
:10084000F4F5A00509E50970020508D3940DE50843
:10085000940E401AE4F508F509AF8CEFFEAD8A7CE2
:1008600000E42DF525EC3EF524E4F58CF58A751BA6
:1008700010751C10751D10751E10AE24AF257C035D
:100880007DE81209578F1FAE24AF257C037DE81247
:1008900009577E007F64CFCDCFCECCCE1209578FC3
:1008A00020AE24AF257C007D641209577E007F0AAC
:1008B000CFCDCFCECCCE1209578F21AE24AF257C21
:0B08C000007D0A1209578D2202081B60
:03000B000209C027
:0909C000758CFC758A18052332C0
:030000000208CB28
:0C08CB00787FE4F6D8FD75812702091241
:10095700BC000BBE0029EF8DF084FFADF022E4CC84
:10096700F875F008EF2FFFEE33FEEC33FCEE9DEC4D
:10097700984005FCEE9DFE0FD5F0E9E4CEFD22ED93
:10098700F8F5F0EE8420D21CFEADF075F008EF2FDD
:10099700FFED33FD4007985006D5F0F222C398FDCE
:0509A7000FD5F0EA226B
:1008D700020800E493A3F8E493A34003F68001F22F
:1008E70008DFF48029E493A3F85407240CC8C33322
:1008F700C4540F4420C8834004F456800146F6DFF1
:10090700E4800B01020408102040809009ACE47ECB
:10091700019360BCA3FF543F30E509541FFEE493E5
:10092700A360010ECF54C025E060A840B8E493A3AC
:10093700FAE493A3F8E493A3C8C582C8CAC583CAD7
:10094700F0A3C8C582C8CAC583CADFE9DEE780BE8F
:0109BF000037
:00000001FF
