:100CEC004334626F6F6D3A0050617373576F726467
:020CFC003A00BC
:040D210002110019A2
:10098900120CD87BFF7A0C79EC7D017F01120C4F98
:100999007BFF7A0C79F47D017F02120C4FE5121569
:1009A90012700215117F057E00120CC3750C02AB83
:1009B90012AA117D0F7F01120C90E51245117005E5
:1009C900F511751219D3E512940FE511648094801D
:1009D900501475A0AA7FC87E00120CC375A0557F5C
:1009E900C87E00120CC375134975143775153C750B
:1009F9001608E51360A7FB7A00750C027D0A7F02D1
:100A0900120C907FF47E01120CC3E514FB7A007579
:100A19000C027D0C7F02120C907FF47E01120CC334
:100A2900E515FB7A00750C027D0E7F02120C907F92
:100A3900F47E01120CC3E516FB7A00750C027D0FDA
:080A49007F02120C900209A6C5
:060CFE00C2A58F80D2A701
:080D04007F027EEFDEFEDFFC42
:010D0C0022C4
:0A0D0D00C2A6120CFEC2A7020D04DC
:100C7200CFCDCFCECCCE120A907C007D0A120A9044
:040C8200ED2430FF2E
:0A0C8600D2A6120CFEC2A7020D0454
:100CAD00AE07BE0104ED148006BE0209ED243F44DB
:060CBD0080FF120D0D2264
:100CD8007F38120D0D7F0C120D0D7F06120D0D7F42
:040CE80001020D0DEB
:0A0D1700AC03120CADAF04020C8611
:060C4F008B088A09890AE6
:100C5500120CADE4FDAB08AA09A90A8D82758300C3
:0C0C6500120A51FF6006120C860D80E997
:010C71002260
:0C0C1C007F0AEA24FFFDE434FFFC7E00A8
:080C28008E0D8F0E8C0F8D1054
:100C30007F017E00E4FBEBC39510E50F6480F87440
:0E0C40008098500AAC0DAD0E120A7E0B80E8B3
:010C4E002283
:040C90008A0A8B0B36
:100C9400120CADAA0CEAD39400400D120C1CAC0A41
:080CA400AD0B120C721A80ED79
:010CAC002225
:100B7100120CADC3EA64809480400B7F2B120C866B
:100B81008A1E8B1F800E7F2D120C86C3E49BF51FDE
:100B9100E49AF51EAA1DEAD39400400D120C1CAC78
:090BA1001EAD1F120C721A80ED4A
:010BAA002228
:040BAB008A228B23EC
:100BAF00120CADAA24EAD3940040297F10120C1E18
:100BBF00AC22AD23CFCDCFCECCCE120A90EF540FB7
:100BCF00FEC3940AEE5004243080022437FF120C27
:040BDF00861A80D121
:010BE30022EF
:040BE4008A278B28A9
:100BE800120CADAA29EAD394004028EA24FFFDE4B8
:100BF80034FFFC7F027E00120C28AC27AD28CFCD35
:100C0800CFCECCCE120A90EF54012430FF120C86BE
:030C18001A80D26D
:010C1B0022B6
:100CC300EF1FAC0670011E4C600A7D027CEFDCFE58
:040CD300DDFC80ECD8
:010CD70022FA
:10080000E4F52A7590FFC2932097137F14FE120C13
:10081000C33097FD7F147E00120CC3752A01209609
:10082000147F147E00120CC33096FD7F147E0012DC
:100830000CC3752A052095147F147E00120CC3305A
:1008400095FD7F147E00120CC3752A092094147F35
:10085000147E00120CC33094FD7F147E00120CC372
:10086000752A0D7590FFC2922097147F147E001296
:100870000CC33097FD7F147E00120CC3752A022032
:1008800096147F147E00120CC33096FD7F147E00F8
:10089000120CC3752A062095147F147E00120CC317
:1008A0003095FD7F147E00120CC3752A0A20941423
:1008B0007F147E00120CC33094FD7F147E00120C56
:1008C000C3752A0E7590FFC2912097147F147E0085
:1008D000120CC33097FD7F147E00120CC3752A03DF
:1008E0002096147F147E00120CC33096FD7F147E78
:1008F00000120CC3752A072095147F147E00120C79
:10090000C33095FD7F147E00120CC3752A0B209412
:10091000147F147E00120CC33094FD7F147E0012ED
:100920000CC3752A0F7590FFC2902097147F147E18
:1009300000120CC33097FD7F147E00120CC3752A81
:10094000042096147F147E00120CC33096FD7F1491
:100950007E00120CC3752A082095147F147E0012A5
:100960000CC33095FD7F147E00120CC3752A0C2039
:1009700094147F147E00120CC33094FD7F147E000B
:08098000120CC3752A10AF2A06
:01098800224C
:03000000020AE50C
:0C0AE500787FE4F6D8FD75812A020B2C06
:100A5100BB010CE58229F582E5833AF583E022505A
:100A610006E92582F8E622BBFE06E92582F8E222A4
:0D0A7100E58229F582E5833AF583E49322BE
:100A7E00EF8DF0A4A8F0CF8CF0A428CE8DF0A42E8C
:020A8E00FE2246
:100A9000BC000BBE0029EF8DF084FFADF022E4CC4A
:100AA000F875F008EF2FFFEE33FEEC33FCEE9DEC13
:100AB000984005FCEE9DFE0FD5F0E9E4CEFD22ED59
:100AC000F8F5F0EE8420D21CFEADF075F008EF2FA3
:100AD000FFED33FD4007985006D5F0F222C398FD94
:050AE0000FD5F0EA2231
:100AF100020989E493A3F8E493A34003F68001F289
:100B010008DFF48029E493A3F85407240CC8C33305
:100B1100C4540F4420C8834004F456800146F6DFD4
:100B2100E4800B0102040810204080900D21E47E36
:100B3100019360BCA3FF543F30E509541FFEE493C9
:100B4100A360010ECF54C025E060A840B8E493A390
:100B5100FAE493A3F8E493A3C8C582C8CAC583CABB
:100B6100F0A3C8C582C8CAC583CADFE9DEE780BE73
:010D250000CD
:00000001FF
