:03000000020800F3
:0C080000787FE4F6D8FD758116020847E9
:0409F90002150000E3
:10088C00E4F512F513FDFC7F0112090512096875D8
:10089C0012008F13E5136401451270167F32FE129D
:1008AC0009C97FC87E001209E4AD13AC127F011296
:1008BC000905E51364024512700F7F32FE1209C957
:1008CC00AD13AC127F01120905E5136403451270D8
:1008DC000F7F32FE1209C9AD13AC127F011209054C
:1008EC00E5136404451270A47F32FE1209C9AD13DE
:0908FC00AC127F01120905809382
:1009E400EF1FAC0670011E4C600A7D027CEFDCFE3A
:0409F400DDFC80ECBA
:0109F80022DC
:0C09FD000A083F065B4F666D7D077F6FA8
:10090500EF14B40800505490091A75F003A4C58378
:1009150025F0C5837302093202093602093A020934
:100925003E02094202094A02095202095AD2A4802A
:100935000ED2A48012D2A48016D2A4801AC2A4D248
:10094500A3D2A28016C2A4D2A3C2A2800EC2A4C200
:10095500A3D2A28006C2A4C2A3C2A274082DF8E63F
:03096500F58022F8
:10096800E4F51420B1137F14FE1209E430B1FD7FC1
:10097800147E001209E475140120B0147F147E005F
:100988001209E430B0FD7F147E001209E4751402E8
:1009980020B2147F147E001209E430B2FD7F147E69
:1009A800001209E475140320B3147F147E001209A1
:1009B800E430B3FD7F147E001209E4751404AF140B
:0109C800220C
:080A0A007F067E5DDEFEDFFCCD
:010A120022C1
:0409C900AD07AC06C4
:1009CD00E4FBFAC3EB9DEA9C500CB295120A0A0B9C
:0609DD00BB00010A80EDE1
:0109E30022F1
:10080C0002088CE493A3F8E493A34003F68001F26E
:10081C0008DFF48029E493A3F85407240CC8C333ED
:10082C00C4540F4420C8834004F456800146F6DFBC
:10083C00E4800B01020408102040809009F9E47E4A
:10084C00019360BCA3FF543F30E509541FFEE493B1
:10085C00A360010ECF54C025E060A840B8E493A378
:10086C00FAE493A3F8E493A3C8C582C8CAC583CAA3
:10087C00F0A3C8C582C8CAC583CADFE9DEE780BE5B
:010A090000EC
:00000001FF
