:03000000020800F3
:0C080000787FE4F6D8FD75811D020847E2
:1008D4001408003F0006005B004F0066006D007DB9
:0608E4000007007F006721
:05090100007F06DFFE8F
:0109060022CE
:10088C00E4F51CF51D900000AF82EF25E02408F87C
:10089C0008E6F4F5A075B008E4F51CF51DAE1CAF28
:1008AC001DE4FCFD7B077A80F9F8D31208EB400DB0
:1008BC00120901051DE51D70E4051C80E0A3E5820D
:0808CC006408458370C280BD81
:10080C0002088CE493A3F8E493A34003F68001F26E
:10081C0008DFF48029E493A3F85407240CC8C333ED
:10082C00C4540F4420C8834004F456800146F6DFBC
:10083C00E4800B01020408102040809008D4E47E70
:10084C00019360BCA3FF543F30E509541FFEE493B1
:10085C00A360010ECF54C025E060A840B8E493A378
:10086C00FAE493A3F8E493A3C8C582C8CAC583CAA3
:10087C00F0A3C8C582C8CAC583CADFE9DEE780BE5B
:0108EA00000D
:1008EB00EB9FF5F0EA9E42F0E99D42F0EC6480C884
:0608FB0064809845F02224
:00000001FF
