:03000000020A0BE6
:0C0A0B00787FE4F6D8FD758128020A52BD
:100D4F0020202D20202D20200020203A20203A2066
:020D5F00200072
:100A9700120D3B120D8E7BFF7A0D794F7D017F0181
:100AA700120CC77BFF7A0D79587D017F02120CC7A4
:100AB70012080012097EE518FB7A00750C027D0109
:100AC7007F01120D08E519FB7A00750C027D047F82
:100AD70001120D08E51AFB7A00750C027D077F01EC
:100AE700120D08E51BFB7A00750C027D017F0212CF
:100AF7000D08E51CFB7A00750C027D047F02120DC0
:100B070008E51DFB7A00750C027D077F02120D08B0
:020B170080A1BB
:060D6100C2A58F80D2A79D
:080D67007F027EEFDEFEDFFCDF
:010D6F002261
:0A0D7000C2A6120D61C2A7020D67B2
:100CEA00CFCDCFCECCCE1209297C007D0A1209299C
:040CFA00ED2430FFB6
:0A0CFE00D2A6120D61C2A7020D6715
:100D2500AE07BE0104ED148006BE0209ED243F4462
:060D350080FF120D702288
:100D3B007F38120D707F0C120D707F06120D707FB5
:040D4B0001020D7024
:0A0D7A00AC03120D25AF04020CFEBD
:060CC7008B088A09890A6E
:100CCD00120D25E4FDAB08AA09A90A8D82758300D2
:0C0CDD001208EAFF6006120CFE0D80E910
:010CE90022E8
:0C0C94007F0AEA24FFFDE434FFFC7E0030
:080CA0008E0D8F0E8C0F8D10DC
:100CA8007F017E00E4FBEBC39510E50F6480F874C8
:0E0CB8008098500AAC0DAD0E1209170B80E8A3
:010CC600220B
:040D08008A0A8B0BBD
:100D0C00120D25AA0CEAD39400400D120C94AC0AD7
:080D1C00AD0B120CEA1A80ED88
:010D240022AC
:100BE900120D25C3EA64809480400B7F2B120CFE02
:100BF9008A168B17800E7F2D120CFEC3E49BF51706
:100C0900E49AF516AA15EAD39400400D120C94AC97
:090C190016AD17120CEA1A80ED69
:010C220022AF
:040C23008A218B2275
:100C2700120D25AA23EAD3940040297F10120C96AF
:100C3700AC21AD22CFCDCFCECCCE120929EF540FA8
:100C4700FEC3940AEE5004243080022437FF120CAE
:040C5700FE1A80D130
:010C5B002276
:040C5C008A268B2732
:100C6000120D25AA28EAD394004028EA24FFFDE4C7
:100C700034FFFC7F027E00120CA0AC26AD27CFCD46
:100C8000CFCECCCE120929EF54012430FF120CFE36
:030C90001A80D2F5
:010C9300223E
:090D840007181803170F3B37068E
:050D8E00C2B5C2B6224F
:060B190025F0FDEC3EFC9E
:060B1F008C088D09A907F6
:100B2500E4FBFAD2B5AF0374017E00A8070880057F
:100B3500C333CE33CED8F9FFE9FDEF5D24FF92B480
:100B4500D2B6C2B60BBB00010AEB64084A70D6E404
:100B5500FAFBAF0374017E00A807088005C333CEF6
:100B650033CED8F9FFE5085EFEE5095F4E24FF9216
:100B7500B4D2B6C2B60BBB00010AEB64084A70D208
:020B8500C2B5F7
:010B8700224B
:020B8800A907BB
:100B8A00E4FBFAF508430101D2B5AF0374017E0014
:100B9A00A807088005C333CE33CED8F9FFE9FDEFA5
:100BAA005D24FF92B4C2B6D2B60BBB00010AEB6455
:100BBA00084A70D6E4FAFBD2B6C2B630B40FAF0315
:100BCA007401A807088002C333D8FC42080BBB0093
:0E0BDA00010AEB64084A70DFC2B5C2B4AF086E
:010BE80022EA
:10080000E4FDFC7F8E120B1FE51875F00A8475F06D
:1008100010A4FFAEF0E51875F00A84EF7F8C120B80
:1008200019E51975F00A8475F010A4FFAEF0E5190A
:1008300075F00A847C00EF7F88120B19E51A75F0B9
:100840000A8475F010A4FFAEF0E51A75F00A847CF6
:1008500000EF25F0FDEC3EFC7F86120B1FE51B75BB
:10086000F00A8475F010A4FFAEF0E51B75F00A8461
:100870007C00EF25F0FDEC3EFC7F84120B1FE51C95
:1008800075F00A8475F010A4FFAEF0E51C75F00A4F
:10089000847C00EF25F0FDEC3EFC7F82120B1FE50F
:1008A0001D75F00A8475F010A4FFAEF0E51D75F01B
:1008B0000A847C00EF25F0FDEC3EFC7F80120B1FCC
:1008C000E51E75F00A8475F010A4FFAEF0E51E7504
:1008D000F00A847C00EF25F0FDEC3EFC7F8A120BD1
:0A08E0001F7D807C007F8E020B1F3D
:10097E007F8C120B88EFC4540F75F00AA4FEEF544F
:10098E000F2EF5187F88120B88EFC4540F75F00ADE
:10099E00A4FEEF540F2EF5197F86120B88EFC45468
:1009AE000F75F00AA4FEEF540F2EF51A7F84120B6A
:1009BE0088EFC4540F75F00AA4FEEF540F2EF51BEA
:1009CE007F82120B88EFC4540F75F00AA4FEEF5409
:1009DE000F2EF51C7F80120B88EFC4540F75F00A92
:1009EE00A4FEEF540F2EF51D7F8A120B88EFC45410
:0C09FE000F75F00AA4FEEF540F2EF51E3A
:010A0A0022C9
:100A1700020A97E493A3F8E493A34003F68001F254
:100A270008DFF48029E493A3F85407240CC8C333E0
:100A3700C4540F4420C8834004F456800146F6DFAF
:100A4700E4800B0102040810204080900D84E47EAE
:100A5700019360BCA3FF543F30E509541FFEE493A4
:100A6700A360010ECF54C025E060A840B8E493A36B
:100A7700FAE493A3F8E493A3C8C582C8CAC583CA96
:100A8700F0A3C8C582C8CAC583CADFE9DEE780BE4E
:010D8D000065
:1008EA00BB010CE58229F582E5833AF583E02250C3
:1008FA0006E92582F8E622BBFE06E92582F8E2220D
:0D090A00E58229F582E5833AF583E4932226
:10091700EF8DF0A4A8F0CF8CF0A428CE8DF0A42EF4
:02092700FE22AE
:10092900BC000BBE0029EF8DF084FFADF022E4CCB2
:10093900F875F008EF2FFFEE33FEEC33FCEE9DEC7B
:10094900984005FCEE9DFE0FD5F0E9E4CEFD22EDC1
:10095900F8F5F0EE8420D21CFEADF075F008EF2F0B
:10096900FFED33FD4007985006D5F0F222C398FDFC
:050979000FD5F0EA2299
:00000001FF
