:081085007F097EF4DEFEDFFCB2
:01108D002240
:03000000020D0EE0
:0C0D0E00787FE4F6D8FD758132020D55A7
:0C10650054656D706572617475726500F1
:04108E007F06DFFEFC
:01109200223B
:100C4E00E4F513F5147F0F121071121058E4F5131A
:100C5E00F5141210850514E51470020513C394C81B
:100C6E00E5136480948040EA1210157BFF7A1079A8
:100C7E00657D017F01120F0D121058120EE18F3299
:100C8E008E318D308C2FE4FFFEFDFCAB32AA31A9E4
:100C9E0030A82F1209A650047B2D80027B2B7D01DC
:100CAE007F0212107BAF32AE31AD30AC2F120A5D27
:100CBE00AB07AA067519037D027F02120F4E7B2E1B
:100CCE007D057F0212107B7F007E407D1C7C46AB33
:100CDE0032AA31A930A82F120800120A5DE47B1047
:100CEE007A27F9F8120BAE7519047D067F02120FE2
:100CFE004E7D0A7C007F05120D9A12108E020C8614
:06103B00C2A58F80D2A7C0
:081041007F027EEFDEFEDFFC02
:011049002284
:0A107100C2A612103BC2A7021041F4
:100F3000CFCDCFCECCCE120B1D7C007D0A120B1D67
:040F4000ED2430FF6D
:0A0F4400D2A612103BC2A702104112
:100FEA00AE07BE0104ED148006BE0209ED243F449B
:060FFA0080FF12107122BD
:101015007F381210717F0C1210717F061210717FCC
:041025000102107143
:0A107B00AC03120FEAAF04020F44A9
:060F0D008B158A168917FE
:100F1300120FEAE4FDAB15AA16A9178D827583009B
:0C0F2300120ADEFF6006120F440D80E988
:010F2F00229F
:0C0EAE007F0AEA24FFFDE434FFFC7E0014
:080EBA008E1A8F1B8C1C8D1D8C
:100EC2007F017E00E4FBEBC3951DE51C6480F87492
:0E0ED2008098500AAC1AAD1B120B0B0B80E877
:010EE00022EF
:040F4E008A178B185B
:100F5200120FEAAA19EAD39400400D120EAEAC1792
:080F6200AD18120F301A80EDEA
:010F6A002264
:100E0300120FEAC3EA64809480400B7F2B120F44D5
:100E13008A238B24800E7F2D120F44C3E49BF52479
:100E2300E49AF523AA22EAD39400400D120EAEAC45
:090E330023AD24120F301A80EDEA
:010E3C002293
:040E3D008A278B284D
:100E4100120FEAAA29EAD3940040297F10120EB0AA
:100E5100AC27AD28CFCDCFCECCCE120B1DEF540F8A
:100E6100FEC3940AEE5004243080022437FF120F8F
:040E7100441A80D1CE
:010E7500225A
:040E76008A2C8B2D0A
:100E7A00120FEAAA2EEAD394004028EA24FFFDE4DE
:100E8A0034FFFC7F027E00120EBAAC2CAD2DCFCD02
:100E9A00CFCECCCE120B1DEF54012430FF120F44DB
:030EAA001A80D2D9
:010EAD002222
:0D105800120F887FCC120FA27F44020FA25E
:100EE100120F887FCC120FA27FBE120FA2120F6BBE
:100EF1008F15120F6BEFFEE515FFFDAC06EC120A24
:0B0F010024E4FBFA7980784112090912
:010F0C0022C2
:100F8800D2B7C2B77FF7DFFED2B77F20DFFEA2B7A6
:090F9800E433FE7FF7DFFEAF0633
:010FA100222D
:10102900C2B77E04DEFEEF24FF92B77E18DEFED241
:01103900B7FF
:01103A002293
:100FBB00C2B77F02DFFED2B77F02DFFEA2B7E433F8
:070FCB00FE7F18DFFEAF06F8
:010FD20022FC
:020FA200AD0799
:100FA400E4FC7401A804088002C333D8FC5DFF127A
:060FB40010290CBC08EC42
:010FBA002214
:100F6B00E4FDFC120FBBEF600D7401A804088002B6
:0C0F7B00C333D8FC42050CBC08E9AF05EC
:010F87002247
:0D104A000B083F065B4F666D7D077F6F80D2
:10100000EF1FAC0670011E4C600A7D027CEFDCFE17
:04101000DDFC80EC97
:0110140022B9
:100D9A00EF14B408005054900DAF75F003A4C58346
:100DAA0025F0C58373020DC7020DCB020DCF020DCC
:100DBA00D3020DD7020DDF020DE7020DEFD2A48098
:100DCA000ED2A48012D2A48016D2A4801AC2A4D2AF
:100DDA00A3D2A28016C2A4D2A3C2A2800EC2A4C267
:100DEA00A3D2A28006C2A4C2A3C2A274082DF8E6A6
:090DFA00F5807F017E000210006B
:100FD3005389F0438901758A18758CFCC28DD28CB4
:070FE300D2A9D2AFC2B9226E
:10080000EC4D6011E8497017ED33EC3304600DE4F2
:10081000FCFFFEFD22E933E8330470F8020AC91236
:100820000A9458046009E4CC248150062850090237
:100830000AD3284003020AD0C0E0EB4A7044B980D2
:1008400006D0E0FB020ABFEF4E701CBD8008EBFF34
:10085000EAFEE9FD80EBE98DF0A4FEE5F00208E98F
:10086000E9CDF9EAFEEBFFEF89F0A4FCE5F0CE89D3
:10087000F0A42EFFE435F0CD89F0A42DFEE435F090
:100880008067EF4E7005BD80D780C3EF8BF0A4ACBE
:10089000F0EE8BF0A42CFCE435F0F8EF8AF0A42CF9
:1008A000E5F038FCE433CB8DF0A42CFCE5F03BF80C
:1008B000EE8AF0A42CFCE5F038F8E433CF89F0A4FC
:1008C0002CFCE5F038CF3400CE89F0A42FFFE5F002
:1008D0003EFEE433C98DF0A42EFEE5F039CD8AF05A
:1008E000A42FFFE5F03EFEE43DFD33D0E0FB5007D2
:1008F0000BBB000F020AD3EC2CFCEF33FFEE33FEF0
:06090000ED33FD020AAB1D
:10090600020AD3EC5D046005E859047003020AC9C3
:10091600120A94580460F6EC4860F2EC7004FDFE8E
:10092600FF22C860DB2481C85009C39860025006C4
:10093600020AD09850CAF582E9294B4A7005AB8263
:10094600020ABF75F0007C1A7880C3EF9BEE9AED21
:1009560099400DC3EF9BFFEE9AFEED99FDE842F03C
:10096600DC23ACF0D0E0FFD0E0FED0E0FDAB82208F
:10097600E7101BEB60BAEC2CFCEF33FFEE33FEED19
:1009860033FD020AABE803F830E705C0F075F00066
:10099600EF2FFFEE33FEED33FD40B830E7C280AAFD
:1009A60074F8CC6480CCC86480C8F58204604FC3F8
:1009B600EB9FF5F0EA9E42F0E99D42F0E89C45F097
:1009C600603C501DE5825FFFE582D313CB5BCBF421
:1009D6002B5582FB50280ABA002409B9002008804A
:1009E6001DE5825BFBE582D313CF5FCFF4C3132FE4
:1009F6005582FF50090EBE00050DBD00010CC3EB6C
:100A06009FF5F0EA9E42F0E99D42F0E89C45F060D1
:090A160007CC4820E701B3EC22F3
:100A1F0075F020800E75F010800575F0087D007E52
:100A2F00007F003392D530D503120C40EC334010C9
:100A3F00EF33FFEE33FEED33FDEC33FCD5F0ED225B
:0E0A4F00E5F0247EA2D513CC92E7CDCEFF2297
:100A5D00EDD2E7CD33EC3392D524814006E4FFFE91
:100A6D00FDFC22FCE4CFCECDCC24E0501174FF80F0
:100A7D00EDC3CC13CCCD13CDCE13CECF13CF04708D
:070A8D00F030D5DE020C4041
:100A9400E9D2E7C933E833F892D5EDD2E7CD33ECA8
:070AA40033FC5002B2D52221
:100AAB00EC30E7100FBF000C0EBE00080DBD0004AC
:100ABB000BEB6014A2D5EB13FCED92E7FD2274FF58
:100ACB00FCFDFEFF22E480F8A2D574FF13FC7D80B1
:030ADB00E480EFC5
:100D1A00020C4EE493A3F8E493A34003F68001F295
:100D2A0008DFF48029E493A3F85407240CC8C333DA
:100D3A00C4540F4420C8834004F456800146F6DFA9
:100D4A00E4800B010204081020408090104AE47EDF
:100D5A00019360BCA3FF543F30E509541FFEE4939E
:100D6A00A360010ECF54C025E060A840B8E493A365
:100D7A00FAE493A3F8E493A3C8C582C8CAC583CA90
:100D8A00F0A3C8C582C8CAC583CADFE9DEE780BE48
:011057000098
:100ADE00BB010CE58229F582E5833AF583E02250CD
:100AEE0006E92582F8E622BBFE06E92582F8E22217
:0D0AFE00E58229F582E5833AF583E4932231
:100B0B00EF8DF0A4A8F0CF8CF0A428CE8DF0A42EFE
:020B1B00FE22B8
:100B1D00BC000BBE0029EF8DF084FFADF022E4CCBC
:100B2D00F875F008EF2FFFEE33FEEC33FCEE9DEC85
:100B3D00984005FCEE9DFE0FD5F0E9E4CEFD22EDCB
:100B4D00F8F5F0EE8420D21CFEADF075F008EF2F15
:100B5D00FFED33FD4007985006D5F0F222C398FD06
:050B6D000FD5F0EA22A3
:100B720075F008758200EF2FFFEE33FECD33CDCC3A
:100B820033CCC58233C5829BED9AEC99E5829840BD
:100B92000CF582EE9BFEED9AFDEC99FC0FD5F0D69A
:100BA200E4CEFBE4CDFAE4CCF9A88222B800C1B9C4
:100BB2000059BA002DEC8BF084CFCECDFCE5F0CB02
:100BC200F97818EF2FFFEE33FEED33FDEC33FCEB3B
:100BD20033FB10D703994004EB99FB0FD8E5E4F9F6
:100BE200FA227818EF2FFFEE33FEED33FDEC33FCE3
:100BF200C933C910D7059BE99A4007EC9BFCE99AD7
:100C0200F90FD8E0E4C9FAE4CCFB2275F010EF2F1B
:100C1200FFEE33FEED33FDCC33CCC833C810D7071B
:100C22009BEC9AE899400AED9BFDEC9AFCE899F856
:0E0C32000FD5F0DAE4CDFBE4CCFAE4C8F922E9
:0E0C4000C3E49FFFE49EFEE49DFDE49CFC22C5
:00000001FF
