:030000000208886B
:0C088800787FE4F6D8FD75810B020800B3
:1008000075A00120B1127F147E0012087330B1FD73
:10081000050BE50B7002050AE50B6402450A70043E
:10082000F50AF50BE50B6401450A70207F327E0066
:1008300012087330B1FDAFA07801EF08800103D832
:10084000FDF5A07F327E0012087380E0E50B450ABB
:1008500070207F327E0012087330B1FDAFA07801A6
:10086000EF08800123D8FDF5A07F327E00120873C7
:0308700080E02203
:10087300EF1FAC0670011E4C600A7D027CEFDCFEAC
:04088300DDFC80EC2C
:01088700224E
:00000001FF
